:020000040000FA
:0600000014EF1AF01200DB
:020006000000F8
:08000800D9CFE6FFE1CFD9FFDB
:1000100084908494FE0EDB50836E8482140EE66E10
:1000200022EC1AF0E55284920A0EE66EE5EC19F025
:10003000E552E552E7CFD9FF1200D9CFE6FFE1CF75
:10004000D9FFE652DF6AFD0EDB06FE0EDB50040A26
:1000500016E0070A0FE0010A08E0030A01E014D0E5
:10006000FD0EDB50800FDF6E0FD0FD0EDB50C00F9A
:10007000DF6E0AD0FD0EDB50900FDF6E05D0FD0E57
:10008000DB50D00FDF6E00D0DF5004E0DFCFE6FFA3
:10009000BBDFE552E552E552E7CFD9FF1200D9CFD9
:1000A000E6FFE1CFD9FF84808494FE0EDB50836E9F
:1000B0008482140EE66E22EC1AF0E5528492140E3D
:1000C000E66E22EC1AF0E552E552E7CFD9FF1200B6
:1000D000D9CFE6FFE1CFD9FFFD0EDBCFF6FFFE0E55
:1000E000DBCFF7FF0800F55011E0FD0EDBCFF6FF88
:1000F000FE0EDBCFF7FF0800F550E66ED0DFE552CD
:10010000FD0EDB2AFE0E01E3DB2AE6D7E552E7CF40
:10011000D9FF1200D9CFE6FFE1CFD9FFFD0EDBCF2B
:10012000E9FFFE0EDBCFEAFFEF5010E0FD0EDBCF64
:10013000E9FFFE0EDBCFEAFFEF50E66EB0DFE552DF
:10014000FD0EDB2AFE0E01E3DB2AE8D7E552E7CFFE
:10015000D9FF1200D9CFE6FFE1CFD9FFE652DF6A1F
:100160000F0EC16E8C6AF80E8D148D6E956AF80EA6
:100170009614966EDF50F76A5A0FF66E340EF72219
:100180000800F5500DE0DF50F76A5A0FF66E340E96
:10019000F7220800F550E66E37DFE552DF2AEAD78E
:1001A000E552E552E7CFD9FF1200010EE66E2CDFD3
:1001B000E5521200720ED36E080E936E956A7F0E92
:1001C000C16EC8DF819281961200D9CFE6FFE1CFE0
:1001D000D9FF060EE126DE6ADD6AFB0EDBCF00F0FA
:1001E000FC0EDBCF01F00006000E015A020E00C02B
:1001F000DBFF030E01C0DBFFDECF00F0DDCF01F03F
:10020000020EDBCF02F0030EDBCF03F00150031828
:10021000E8AE02D0033404D00250005C0350015811
:1002200051E2FD0EDBCF02F0FE0EDBCF03F0DE501D
:100230000224E96EDD500320EA6EEFCF00F0016A80
:1002400000BE0168040E00C0DBFF050E01C0DBFF2D
:10025000020EDBCF02F0030EDBCF03F0FD0EDB500E
:100260000224E96EFE0EDB500320EA6EEF50E66ECC
:10027000FD0EDBCF00F0FE0EDBCF01F0DE500024E0
:10028000E96EDD500120EA6EE552E750EF6E020E96
:10029000DBCF00F0030EDBCF01F0FD0EDB500024BE
:1002A000E96EFE0EDB500120EA6E040EDBCFEFFF9D
:1002B000DF2A010E01E3DB2A020EDB06030E01E258
:1002C000DB069AD7060EE15C02E2E16AE552E16ED6
:1002D000E552E7CFD9FF1200D9CFE6FFE1CFD9FF32
:1002E000020EE126DE6ADD6AD950FD0FE96EFF0ECF
:1002F000DA20EA6EEE50ED103FE0FD0EDBCF02F0AB
:10030000FE0EDBCF03F00A0E2F6E306A02C02AF019
:1003100003C02BF083EC0DF026C002F027C003F0E1
:10032000300E0226000E0322DFCF00F0DF2A010E7E
:10033000DBCF01F001E3DB2AFB0EDB500024E96E8A
:10034000FC0EDB500120EA6E02C0EFFF0A0E006EC9
:10035000016AFD0EDBCF2AF0FE0EDBCF2BF000C0D2
:100360002FF001C030F083EC0DF0FD0E2AC0DBFF52
:10037000FE0E2BC0DBFFB8D7DECF00F0DDCF01F0E3
:10038000F90EDBCF02F0FA0EDBCF03F001500318B9
:10039000E8AE02D0033404D00250005C0350015890
:1003A00013E2DFCF00F0DF2A010EDBCF01F001E323
:1003B000DB2AFB0EDB500024E96EFC0EDB50012033
:1003C000EA6E300EEF6ED8D7DECFE6FFDDCFE6FF68
:1003D000FB0EDBCFE6FFFC0EDBCFE6FFF6DEE552E1
:1003E000E552E552E552FB0EDBCF00F0FC0EDBCF11
:1003F00001F0DE500024E96EDD500120EA6EEF6A64
:10040000DECF00F0DDCF01F000C0F3FF01C0F4FF4C
:10041000020EE15C03E200D0E16AE552E16EE552D2
:10042000E7CFD9FF1200D9CFE6FFE1CFD9FF080E01
:10043000E126FB0EDBCF29F0FC0EDBCF2AF0FD0E10
:10044000DBCF2BF0FE0EDBCF2CF0A9EC0DF02AC099
:10045000DEFF2BC0DDFFFB0EDBCF00F0FC0EDBCFA1
:1004600001F0FD0EDBCF02F0FE0EDBCF03F0000E3D
:10047000DFCF2AF0010EDBCF2BF019EC0CF029C0F6
:1004800004F02AC005F02BC006F02CC007F004C011
:100490002EF005C02FF006C030F007C031F000C0CC
:1004A00029F001C02AF002C02BF003C02CF02CEC84
:1004B0000CF0020E29C0DBFF030E2AC0DBFF040E86
:1004C0002BC0DBFF050E2CC0DBFF000EE66EE66ADC
:1004D000F90EDBCFE6FFFA0EDBCFE6FFDECFE6FF5D
:1004E000DDCFE6FFF9DE006E060EE15E0050060E7F
:1004F000F3CFDBFF070EF4CFDBFFD950F70FE96E28
:10050000FF0EDA20EA6EEE50ED1001E1B1D0060EDA
:10051000DBCF00F0070EDBCF01F0F90EDB5000243B
:10052000E96EFA0EDB500120EA6E2E0EEF6E020E1F
:10053000DBCF00F0030EDBCF01F0040EDBCF02F0C7
:10054000050EDBCF03F000C0E6FF01C0E6FF02C0EE
:10055000E6FF03C0E6FFF70EDBCF2AF0F80EDBCF95
:100560002BF019EC0CF029C008F02AC009F02BC0C0
:100570000AF02CC00BF008C0E6FF09C0E6FF0AC075
:10058000E6FF0BC0E6FFE66AE66A200EE66E410E65
:10059000E66E88EC06F00C6E080EE15E0C50E5523B
:1005A000E7CF03F0E552E7CF02F0E552E7CF01F0E5
:1005B000E552E7CF00F028C004F029C005F02AC0BA
:1005C00006F02BC007F004C02EF005C02FF006C0C7
:1005D00030F007C031F000C029F001C02AF002C09D
:1005E0002BF003C02CF016EC0DF0020E29C0DBFF3F
:1005F000030E2AC0DBFF040E2BC0DBFF050E2CC050
:10060000DBFFF70EDBCFE6FFF80EDBCFE6FF060ED3
:10061000DBCF02F0070EDBCF03F0F90EDB50022434
:10062000006EFA0EDB500320016E010E0026000E54
:10063000012200C0E6FF01C0E6FF020EDBCF29F079
:10064000030EDBCF2AF0040EDBCF2BF0050EDBCF41
:100650002CF0A9EC0DF02AC004F02BC005F004C06A
:10066000E6FF05C0E6FF38DE066E060EE15E0650C8
:10067000080EE15C02E2E16AE552E16EE552E7CF85
:10068000D9FF1200D9CFE6FFE1CFD9FF210EE12635
:10069000DE6ADE6ADE6ADD6ADD52DD52040EDB6A86
:1006A000050EDB6A060EDB6A070EDB6A080EDB6AE4
:1006B000090EDB6A0A0EDB6A0B0EDB6A0C0EDB6AC4
:1006C0000D0EDB6A0E0EDB6A0F0EDB6A73DD8182B4
:1006D000020EE66E22EC1AF0E552819281A6FED758
:1006E000110EE66E9CEC19F0E55281B6FED761EC76
:1006F00019F0F3CF04F0F4CF05F0010ED8900436D2
:100700000536E806FBE104C02AF005C02BF017EC23
:100710000CF029C000F02AC001F02BC002F02CC060
:1007200003F02E6A2F6A680E306E420E316E00C0E2
:1007300029F001C02AF002C02BF003C02CF0C3EC5A
:100740000CF0080E29C0DBFF090E2AC0DBFF0A0EE1
:100750002BC0DBFF0B0E2CC0DBFFE10E006E7A0E10
:10076000016E940E026E3F0E036ED950080FE96EB3
:10077000DACFEAFFEECF29F0EECF2AF0EECF2BF062
:10078000EFCF2CF000C02EF001C02FF002C030F0EF
:1007900003C031F02CEC0CF02CC0EDFF2BC0EDFFB2
:1007A0002AC0EDFF29C0EFFF080EDBCF00F0090ED5
:1007B000DBCF01F00A0EDBCF02F00B0EDBCF03F034
:1007C0002E6A2F6A306A3F0E316E00C029F001C0D8
:1007D0002AF002C02BF003C02CF00FEC0EF0010A3F
:1007E00008E0080EDB6A090EDB6A0A0EDB6A0B0EF4
:1007F000DB6A000EE66EE66A80EC19F0E552E5521F
:10080000006AC00E016E400E026E440E036EC30EEF
:10081000296EF50E2A6E480E2B6E400E2C6E080EB9
:10082000DBCF2EF0090EDBCF2FF00A0EDBCF30F03E
:100830000B0EDBCF31F016EC0DF029C00CF02AC006
:100840000DF02BC00EF02CC00FF02E6A2F6A400E58
:10085000306E316E0CC029F00DC02AF00EC02BF0A6
:100860000FC02CF0C3EC0CF029C008F02AC009F02E
:100870002BC00AF02CC00BF000C0E6FF01C0E6FF61
:1008800002C0E6FF03C0E6FF08C0E6FF09C0E6FFBE
:100890000AC0E6FF0BC0E6FFE66AE66AE66A400EBB
:1008A000E66E9A0EE66E990EE66ED10EE66E400E7C
:1008B000E66E88EC06F01C6E080EE15E1C50E552F8
:1008C000E7CF0BF0E552E7CF0AF0E552E7CF09F0AA
:1008D000E552E7CF08F0E552E7CF03F0E552E7CF66
:1008E00002F0E552E7CF01F0E552E7CF00F028C073
:1008F00018F029C019F02AC01AF02BC01BF03D0EC9
:100900002E6ECA0E2F6E0E0E306E420E316E18C055
:1009100029F019C02AF01AC02BF01BC02CF02DECC6
:100920000CF029C014F02AC015F02BC016F02CC012
:1009300017F000C0E6FF01C0E6FF02C0E6FF03C0FB
:10094000E6FF08C0E6FF09C0E6FF0AC0E6FF0BC0ED
:10095000E6FF14C0E6FF15C0E6FF16C0E6FF17C0AD
:10096000E6FFE66AE66AE66A400EE66E660EE66E48
:10097000E66EAE0EE66E400EE66E88EC06F0216E78
:10098000080EE15E2150E552E7CF17F0E552E7CFC0
:1009900016F0E552E7CF15F0E552E7CF14F0E55237
:1009A000E7CF0BF0E552E7CF0AF0E552E7CF09F0C9
:1009B000E552E7CF08F0E552E7CF03F0E552E7CF85
:1009C00002F0E552E7CF01F0E552E7CF00F028C092
:1009D0001DF029C01EF02AC01FF02BC020F01DC042
:1009E0002EF01EC02FF01FC030F020C031F014C018
:1009F00029F015C02AF016C02BF017C02CF02DECF2
:100A00000CF029C010F02AC011F02BC012F02CC03D
:100A100013F010C02EF011C02FF012C030F013C030
:100A200031F008C029F009C02AF00AC02BF00BC031
:100A30002CF016EC0DF029C004F02AC005F02BC0F4
:100A400006F02CC007F004C02EF005C02FF006C041
:100A500030F007C031F000C029F001C02AF002C018
:100A60002BF003C02CF02CEC0CF029C0DEFF2AC0C8
:100A7000DEFF2BC0DEFF2CC0DDFFDD52DD52D9CF03
:100A8000E9FFDACFEAFFEECF04F0EECF05F0EECFCC
:100A900006F0EFCF07F02E6AC00E2F6E400E306EBC
:100AA000440E316E04C029F005C02AF006C02BF0B8
:100AB00007C02CF0C3EC0CF029C000F02AC001F0F4
:100AC0002BC002F02CC003F02E6A2F6AC80E306EC5
:100AD000420E316E00C029F001C02AF002C02BF096
:100AE00003C02CF016EC0DF0040E29C0DBFF050E40
:100AF0002AC0DBFF060E2BC0DBFF070E2CC0DBFF7E
:100B0000040EDBCF00F0050EDBCF01F0060EDBCFCD
:100B100002F0070EDBCF03F02E6A2F6A306A316ACB
:100B200000C029F001C02AF002C02BF003C02CF055
:100B30000FEC0EF0010A08E0040EDB6A050EDB6A1A
:100B4000060EDB6A070EDB6A020EE66EE66AD95015
:100B5000100FE66E000EDA20E66ED9CFE9FFDACF8D
:100B6000EAFFEECFE6FFEECFE6FFEECFE6FFEFCFF8
:100B7000E6FF59DC006E080EE15E0050D950190FF7
:100B8000E66E000EDA20E66E040EDBCF29F0050ECD
:100B9000DBCF2AF0060EDBCF2BF0070EDBCF2CF0DD
:100BA000D8EC0DF028C000F029C001F02AC002F0F6
:100BB0002BC003F000C0E6FF01C0E6FF02C0E6FF65
:100BC00003C0E6FFD9EC15F0046E060EE15E04509A
:100BD000D9CFE9FFDACFEAFFEECF00F0EECF01F098
:100BE000EECF02F0EFCF03F02E6A2F6A430E306E85
:100BF000440E316E00C029F001C02AF002C02BF073
:100C000003C02CF00FEC0EF0010A60E0D9CFE9FF31
:100C1000DACFEAFFEECF04F0EECF05F0EECF06F02C
:100C2000EFCF07F02E6A2F6A306A316A04C029F0CC
:100C300005C02AF006C02BF007C02CF018EC0EF00F
:100C4000010A44E0010EE66EE66E1DEC00F0E5528E
:100C5000E552220EE66E340EE66E68EC00F0E552C8
:100C6000E552D950100FE66E000EDA20E66E8AECDF
:100C700000F0E552E5521F0EE66E340EE66E68ECAB
:100C800000F0E552E552010EE66E020EE66E1DEC36
:100C900000F0E552E552160EE66E340EE66E68EC94
:100CA00000F0E552E552D950190FE66E000EDA2039
:100CB000E66E8AEC00F0E552E552140EE66E340E54
:100CC000E66E68EC00F0E552E55210D0040EE66ED8
:100CD000010EE66E1DEC00F0E552E5520A0EE66EDE
:100CE000340EE66E68EC00F0E552E552C80EE66E92
:100CF000B8EC19F0E552D5EC00F0E9D4210EE15C36
:100D000002E2E16AE552E16EE552E7CFD9FF120057
:100D1000D9CFE6FFDACFE6FFE1CFD9FFE2CFDAFFA6
:100D20004B0EE12402E3E168E652E16E24EC0BF0A5
:100D3000D950060F49EC0BF0CBEC0BF09AEC0BF012
:100D400002E2E16AE552E16E0050DF6ED9500D0F0C
:100D500049EC0BF002EC0CF09AEC0BF002E2E16AC9
:100D6000E552E16E0050E76E010EE7CFDBFF14ECB9
:100D70000CF0FDEC0AF0FEEC0BF0000EE66EE66AFD
:100D8000D1EC0BF002E2E16AE552E16E0050190E7F
:100D9000DB5003E01A0EDB6A16D0FEEC0BF0010EFE
:100DA000E66EE66AD1EC0BF002E2E16AE552E16E32
:100DB0000050190EDB5002E1030E01D0050EF36E58
:100DC0001A0EF3CFDBFF010EDB0455E0FA0EDBCF8A
:100DD00000F0FB0EDBCF01F0FC0EDBCF02F0FD0ECE
:100DE000DBCF03F0D8EC0BF046E0800EDF5C04E0D4
:100DF000010EDB50800804E1AEEC0BF07F0E5BD0FF
:100E0000DF040CE1130EDB500FE0EDDB7F0EB5ECE1
:100E10000BF0210E00018A6F8B6B0DD0040EDF5C8E
:100E200022E1130EDB5003E079EC0BF004D0DBDBA6
:100E30007F0EB5EC0BF01A0EDBA469D30C0EDB5061
:100E400001E165D34EEC0BF0EEEC0BF0020E29C085
:100E5000DBFF030E2AC0DBFF040E2BC0DBFF050EF9
:100E60002CC0DBFF54D3010EDB50040816E173DB0A
:100E7000D8EC0BF003E1B7DB3F0E1DD0130EDB50B7
:100E800004E0DEEC0BF004E106D0DEEC0BF003E155
:100E900079EC0BF03CD3A7DB0DD00C0EDB500EE051
:100EA0001A0EDB50010B0AE1210E00018A6F8B6BD9
:100EB000AEEC0BF07F0EB5EC0BF029D3ABDBD8EC2E
:100EC0000BF002E1C1DB23D3D9501B0FE2DBCBECEB
:100ED0000BF032EC17F0006E060EE15C02E2E16A04
:100EE000E552E16E005089DB0C0EDB5003E1180E79
:100EF000DB6A16D030DBEEEC0BF0140E29C0DBFF02
:100F0000150E2AC0DBFF160E2BC0DBFF170E2CC000
:100F1000DBFF1A0EDB50040BE76E180EE7CFDBFF8A
:100F20001ADBF30E2E6E040E2F6E350E306E3F0E52
:100F3000316E0DDB18EC0EF0010A17E1010EE66EC2
:100F4000E66AD950140FE5EC0BF096EC16F0006E43
:100F5000060EE15C02E2E16AE552E16E00504DDB13
:100F60001B0EDB061C0E01E2DB06F60EDBCF29F0C2
:100F7000F70EDBCF2AF0F80EDBCF2BF0F90EDBCF2C
:100F80002CF0D8EC0DF01D0E28C0DBFF1E0E29C082
:100F9000DBFF1F0E2AC0DBFF200E2BC0DBFF1B0E6A
:100FA000DBCF2AF01C0EE6DB250E29C0DBFF260E68
:100FB0002AC0DBFF270E2BC0DBFF280E2CC0DBFF77
:100FC00036DBF60EDBCF2EF0F70EDBCF2FF0F80E70
:100FD000DBCF30F0F90ED2DBD8EC0DF0210E28C0BB
:100FE000DBFF220E29C0DBFF230E2AC0DBFF240E0D
:100FF0002BC0DBFFD950210F85DB08E6010EEE5C2C
:10100000800EEE58FF0EEE58FF0EEE581AE3210E3A
:10101000DBCF29F0220EDBCF2AF0230EDBCF2BF023
:10102000240EDBCF2CF02C34000E2C1809E6D880CF
:10103000FF0E29547F0E2A54000E2B54000E2C5400
:1010400002E266DBEED1D9501D0F5CDB08E6800EB4
:10105000EE5CFF0EEE58FF0EEE58FF0EEE580CE25F
:1010600075DB03E0800E006E05D0D9501B0F3DDB11
:101070001FE1006A016A29D01D0EDBCF29F01E0E88
:10108000DBCF2AF01F0EDBCF2BF0200EDBCF2CF0B6
:101090002C34000E2C1809E6D880800E2954000E3E
:1010A0002A54000E2B54000E2C5422E24FDB04E095
:1010B000800E006E016809D0D9501B0F16DB02E1CB
:1010C000006A02D0800E006E016A390E00C0DBFF9C
:1010D0003A0E01C0DBFF370EDB6A380EDB6A2D0EDD
:1010E000DB6A2E0EDB6A2F0EDB6A300EDB6ACFD096
:1010F0001D0EDBCF2AF01E0EDBCF2BF0370E2AC0E1
:10110000DBFF380E2BC0DBFF210EDBCF2AF0220ED7
:10111000DBCF2BF0390E2AC0DBFF3A0E2BC0DBFFF2
:10112000110EDBCF00F0120EDBCF01F07F0E005E60
:10113000000E015A080E005E000E015A350E00C066
:10114000DBFF360E01C0DBFF59DB350EDBCFE6FFE0
:10115000360EDBCFE6FF25DB02E2E16AE552E16E07
:101160000050470E28C0DBFF480E29C0DBFF490EA8
:101170002AC0DBFF4A0E2BC0DBFF4CDA470EDBCF69
:1011800004F0480EDBCF05F0490EDBCF06F04A0E27
:10119000DBCF07F004C02EF005C02FF006C030F002
:1011A00007C031F0D4D92CEC0CF0430E29C0DBFF82
:1011B000440E2AC0DBFF450E2BC0DBFF460E2CC0C1
:1011C000DBFF35DA470EDBCF2EF0480EDBCF2FF0FA
:1011D000490EDBCF30F04A0ED1DAA3DA390EDBCF7D
:1011E0002AF03A0EC7DA29C008F02AC009F02BC04D
:1011F0000AF02CC00BF03BDAD7DA2CEC0CF0C2DA98
:1012000016DA430EDBCF2EF0440EDBCF2FF0450E67
:10121000DBCF30F0460EB2DA29C00CF02AC00DF058
:101220002BC00EF02CC00FF022DA91D92DEC0CF06F
:101230003F0E29C0DBFF400E2AC0DBFF410E2BC052
:10124000DBFF420E2CC0DBFF3F0EDBCF00F0400E79
:10125000DBCF01F0410EDBCF02F0420EDBCF03F01B
:10126000180E2E6E720E2F6E310E306E3F0E316ED6
:101270006ED916EC0DF02D0E29C0DBFF2E0E2AC004
:10128000DBFF2F0E2BC0DBFF300E2CC0DBFFC2D9E3
:10129000370EDBCF2AF0380E6DDA43DAE8D957D9AA
:1012A0002CEC0CF03B0E29C0DBFF3C0E2AC0DBFF10
:1012B0003D0E2BC0DBFF3E0E2CC0DBFF3B0EDBCF19
:1012C00004F03C0EDBCF05F03D0EDBCF06F03E0E0A
:1012D000F2D9140F7ADA13EC12F04AD9D9502D0F43
:1012E00069D92DEC0CF0CCD9370EDBCF00F0380EDD
:1012F000DBCF01F00001800E011410E02A682B689A
:10130000370EDBCF2FF0380EDBCF30F0FCEC0EF0D9
:10131000370E28C0DBFF380E29C0DBFF290EDB6A41
:101320002A0EDB6A800EF36E2B0EF3CFDBFF3F0E2F
:10133000F36E2C0EF3CFDBFFD950370FD6D919E05F
:10134000370EDB50010B04E006D9D950290F4ADAD9
:10135000D950370F3EDA010E0F0B06E0EC52D89051
:10136000ED32EF32E806FAE1F6D8D950140F3ADA46
:10137000E3D7130EDB5021E0296A2A6A800E2B6E18
:101380003F0E2C6E290EDBCF2EF02A0EDBCF2FF076
:101390002B0EDBCF30F02C0EDBCF31F0C3EC0CF09A
:1013A000F1D9290E29C0DBFF2A0E2AC0DBFF2B0E44
:1013B0002BC0DBFF2C0E2CC0DBFF390EDBCFE6FF92
:1013C0003A0EDBCFE6FF290EDBCF04F02A0EDBCF8F
:1013D00005F02B0EDBCF06F02C0E6DD92D0FF5D9B5
:1013E00030EC0FF0C5D829C0E6FF2AC0E6FF2BC0BD
:1013F000E6FF2CC0E6FF96EC16F00C6E060EE15CE4
:1014000002E2E16AE552E16E0C50310E28C0DBFFCA
:10141000320E29C0DBFF330E2AC0DBFF340E2BC097
:10142000DBFFD950060F35D9D950310FCED982D92B
:1014300002E2E16AE552E16E0050DF6E850EDF14D4
:101440003CE0220E00018A6F8B6BEED928C000F0C1
:1014500029C001F02AC002F02BC003F0BDD828C07B
:1014600029F0C5D918EC0EF0010A03E1130EDB5088
:1014700014E1DAD928C004F029C005F02AC006F02A
:101480002BC007F0A9D828C029F0C2D90FEC0EF064
:10149000010A12E1130EDB500FE1310EDB6A320E4E
:1014A000DB6A800EF36E330EF3CFDBFF7F0EF36E3D
:1014B000340EF3CFDBFF01D02BD9180EDB500FE039
:1014C000310EDBCF04F0320EDBCF05F0330EDBCF75
:1014D00006F0340EDBCF07F001D9A1D90CD0310EC4
:1014E000DBCF00F0320EDBCF01F0330EDBCF02F0AA
:1014F000340EDBCF03F0020E00C0DBFF030E01C091
:10150000DBFF040E02C0DBFF050E03C0DBFFC6D805
:1015100000C028F001C029F002C02AF003C02BF05F
:101520004B0EE15C02E2E16AE552E16EE552E5CF85
:10153000DAFFE7CFD9FF1200DA20EA6EEECFE6FF3E
:10154000EECFE6FFEECFE6FFEFCFE6FF120000C0E2
:1015500029F0F7EF0BF0140EDBCF00F0150EDBCF08
:1015600001F0160EDBCF02F0170EDBCF03F01200F6
:10157000E552E552E552E552E552E7CF07F0E55274
:10158000E7CF06F0E552E7CF05F0E552E7CF04F0EC
:1015900028C008F029C009F02AC00AF02BC00BF0BF
:1015A00028C02EF029C02FF02AC030F02BC031F017
:1015B0000FEF0CF00ED9EECF29F0EECF2AF0EECFE0
:1015C0002BF0EFCF2CF000C02EF001C02FF002C0A6
:1015D00030F003C031F012002E6A2F6A800E306E98
:1015E0003F0E316E1200020EDB6A030EDB6A800EC4
:1015F000F36E040EF3CFDBFF1200140E28C0DBFFE6
:10160000150E29C0DBFF160E2AC0DBFF170E2BC0FC
:10161000DBFF1200F60EDBCF00F0F70EDBCF01F0A0
:10162000F80EDBCF02F0F90EDBCF03F01200250E2F
:10163000DBCF29F0260EDBCF2AF0270EDBCF2BF0F5
:10164000280EDBCF2CF01200D950FA0FE96EFF0EF6
:10165000DA20EA6E020EEECFDBFF030EEECFDBFFE9
:10166000040EEECFDBFF050EEECFDBFF120029C02C
:101670002EF02AC02FF02BC030F02CC031F0120019
:101680002CC0EDFF2BC0EDFF2AC0EDFF29C0EFFFFE
:101690001200E66E000EDA20E66E1200020EDBCFBC
:1016A00000F0030EDBCF01F0040EDBCF02F0050EDD
:1016B000DBCF03F01200DBCF07F004C0E6FF05C06C
:1016C000E6FF06C0E6FF07C0E6FFD95012002EEC89
:1016D00019F0E552E552E552E55212002E6A2F6AE2
:1016E000800E306EBF0E316E120073D8EE50ED10CA
:1016F0001200020EDB6A030EDB6A040EDB6A050EC3
:10170000DB6A120066D8D880030EEB50FF0A120085
:10171000310EDB6A320EDB6A330EDB6A340EDB6AB3
:10172000120029C004F02AC005F02BC006F02CC01E
:1017300007F01200C4EC17F0006E060EE15C120018
:1017400090EC14F0006E080EE15C12001B0E1C0EF3
:10175000DBCF03F00001800E03141200020EDB68E1
:10176000030EDB68040EDB681200F36E050EF3CF88
:10177000DBFF1200DBCF2BF019EF0CF0DBCF31F0E9
:1017800016EF0DF029C000F02AC001F02BC002F0C6
:101790002CC003F01200D950FA0FE96EFF0E9CEF37
:1017A0000AF030D8A0EF0BF004C029F008EF0CF0DD
:1017B00013DFCDDE29EC0FF0010A1200CCDE0CDFC6
:1017C000C6DE18EC0EF0010A1200E96E000E9CEF66
:1017D0000AF0E96E000EDA20EA6E12007FDFB7DE53
:1017E00016EF0DF0E7DE16EC0DF040EF0BF001C048
:1017F0002AF002C02BF003C02CF01200D950190FB0
:1018000049EF0BF0D950F60FE96EFF0E9CEF0AF08E
:1018100005C02AF006C02BF007C02CF01200C4DF70
:0E18200016EC0DF0C2EF0BF0B6DF67EF0BF029
:02182E00239EF7
:1018300008D0239E2BAE05D02A6C2B1EE86A2B22E3
:10184000238E2BC025F02AC024F0356A346A8E0E10
:10185000266E276A92EF0EF0317E236ACEEC0EF0F0
:10186000E6EC0EF023B676EF0EF023A20AD023AA00
:1018700003D023BE76EF0EF023A482EF0EF07FEFAD
:101880000EF023AA05D023AC82EF0EF07FEF0EF00E
:1018900023A00AD023A808D023BE04D023A402D0BA
:1018A0008BEF0EF08FEF0EF0346A276A31502C5C0C
:1018B000336E10E329C035F02AC024F02BC025F088
:1018C0002CC032F02EC029F02FC02AF030C02BF0EF
:1018D000233A09D02EC035F02FC024F030C025F0B7
:1018E00031C032F0336C239E23BC238E32C026F0ED
:1018F00023B0BEEF0EF01A0E3360BEEF0EF0266A74
:101900002C6A23A408D0296C2A1E2B1E2C1EE86AE0
:101910002A222B222C2223AC08D0356C241E251E13
:10192000261EE86A242225222622286A335207E04E
:101930002C342B322A3229322832332EF9D729502F
:1019400035262A5024222B5025222C50262228C00E
:1019500034F0239E26AE0BD0346C351E241E251E7B
:10196000261EE86A3522242225222622238E26A03E
:1019700006D0D8802532243235323432322A32C071
:1019800026F092EF0EF0236ACEEC0EF0E6EC0EF0AD
:1019900023B676EF0EF023A205D023BA76EF0EF031
:1019A0007DEF0EF023BA89EF0EF023A005D023B807
:1019B00076EF0EF089EF0EF023B87DEF0EF0276A78
:1019C0007F0E2C24266EE86A27223150265EE86AB4
:1019D000275A1A0E326E2C6A346A356A246A256ACE
:1019E0002E50295E2F502A5A30502B5A000E2C5A56
:1019F00009E72E5029262F502A2230502B22000E84
:101A00002C2201D0348AD89029362A362B362C360F
:101A1000D8903436353624362536322EE1D72B5041
:101A20002A102910D8A4348A92EF0EF0236ACEEC43
:101A30000EF0E6EC0EF023B676EF0EF023A205D002
:101A400023B876EF0EF07DEF0EF023AA05D023B079
:101A500076EF0EF07DEF0EF023B002D023A802D077
:101A600089EF0EF0276A31502C24266EE86A27226F
:101A70007E0E265EE86A275A346A356A246A256A29
:101A800030502B02F4CF25F0F3CF24F02F502B024F
:101A9000F3503526F4502422000E252230502A021D
:101AA000F3503526F4502422000E25222E502B020E
:101AB000F3503426F4503522000E242225222F50D4
:101AC0002A02F3503426F4503522000E2422252217
:101AD00030502902F3503426F4503522000E2422CF
:101AE00025222E502A02F4503426000E35222422BC
:101AF00025222F502902F4503426000E35222422AC
:101B0000252292EF0EF0226A30AE8CEF0DF02F6C92
:101B1000301EE86A3022221E2BAE94EF0DF02A6CA4
:101B20002B1EE86A2B22221ECFEC19F02BBEA4EF4D
:101B30000DF022AE000C2A6C2B1EE86A2B22266CBC
:101B4000271EE86A2722000C22BE9BEF0DF0238897
:101B5000FF0C236ACEEC0EF023B6B3EF0DF023A2F8
:101B60000ED023B405D07F0E2B6EFF0E2A6E1FD031
:101B7000800E2B6E2A6A1BD02B6A2A6A18D023B0DB
:101B8000FBD78F0E2C60EDD77E0E2C64F5D78E0E12
:101B90002C5C05E0D8902B322A322C2AF8D723A4CB
:101BA00006D02A6C2B1EE86A2B222BAEE5D712003A
:101BB000236ACEEC0EF023B6E2EF0DF023A20FD095
:101BC00023B407D07F0E2B6EFF0E2A6E296E286E6F
:101BD00025D0800E2B6E01D02B6A000EF6D723B0D5
:101BE000FBD7286A9F0E2C60EBD77E0E2C64F4D7AF
:101BF0009E0E2C5C07E0D8902B322A3229322832F4
:101C00002C2AF6D723A40AD0286C291E2A1E2B1EA4
:101C1000E86A29222A222B222BAEDED7120021ECE1
:101C20000EF023B6000C23B0000C23B4000C010C02
:101C300021EC0EF023B6000C23B0000C23A4000C02
:101C4000010C236ACEEC0EF0E6EC0EF023B6120087
:101C500023AE08D023A004D023A802D023801200F2
:101C60002390120031502C5C0BE130502B5C08E1CA
:101C70002F502A5C05E12E50295C02E123801200DE
:101C8000D8A002D0238E10D02C5031C02CF0316E51
:101C90002B5030C02BF0306E2A502FC02AF02F6E00
:101CA00029502EC029F02E6E31502C5C10E0FF0F11
:101CB00009E0239023B403D023AE2384120023AE83
:101CC00023941200312AD89030322F322E322E50E7
:101CD000295E2F502A5A30502B5A2BBEEAD7D89063
:101CE00029362A362B362C2EF8D7C8D77F0E2C6EE5
:101CF000FF0E2B6E2A6E296E12007F0E23BEFF0E82
:101D00002C6E02D07F0E2C6E800E2B6E2A6A296AF2
:101D1000F3D723AE04D0800E2C6E2B6AF7D72C6A33
:101D20002B6AF4D72550241035103410F8E027BE64
:101D3000F0D725BE0CD026502710EBE0D8903436D3
:101D40003536243625362606D8A02706F2D7275062
:101D5000D4E12628D2E034AE11D07F0E341402E153
:101D600035A00CD0352AE86A2422252207E3D88042
:101D7000253224323532262A2628BFE02650C9E0F3
:101D800035C029F024C02AF025342B6E26302C6E65
:101D90002B322C9E23BE2C8E7CEF0EF02B362C3655
:101DA00002E32384237E06E123802C6A2B6A2A6ABD
:101DB000296A12002C2803E0D8802B321200D89018
:101DC0002B3202E123821200238612003036313694
:101DD00002E3238C237E06E12388316A306A2F6A6E
:101DE0002E6A1200312803E0D88030321200D890D9
:101DF0003032EAE1238A12002BC035F02AC034F0D9
:101E00002A502F02F4CF29F0F3CF28F02B503002C4
:101E1000F4CF2BF0F3CF2AF02F02F3502926F45001
:101E20002A22E86A2B2234503002F3502926F4503B
:101E30002A22E86A2B2230AE22EF0FF034502A5EBD
:101E400035502B5A35AE000C2F502A5E30502B5A8D
:101E5000000C21EC0EF023B6000C23B0010C000C9A
:101E6000D9CFE6FFDACFE6FFE1CFD9FFE2CFDAFF45
:101E7000260EE12402E3E168E652E16ED950FA0F42
:101E8000E96EFF0EDA20EA6E010EEECFDBFF020EE6
:101E9000EECFDBFF030EEECFDBFF040EEECFDBFF5A
:101EA000050EDB6A060EDB6A800EF36E070EF3CFBB
:101EB000DBFF330EF36E080EF3CFDBFFD950090FB3
:101EC000E66E000EDA20E66E98DAC4EC17F0006ECB
:101ED000060EE15C02E2E16AE552E16E0050DF6E5F
:101EE000800EDF5C07E1010EDB68020EDB68030E8B
:101EF000DB681DD0DF0466E0040EDF5C05E10F0E39
:101F0000DB5001E1D5D127D007DA170E2E6E720E05
:101F10002F6EB10E306E420E316EEAD90FEC0EF01C
:101F2000010A07E1220E00018A6F8B6B4ADA7F0EED
:101F30004BD0F2D9D80E2E6E8E0E2F6ECE0E306E86
:101F4000C20E316ED5D918EC0EF0010A0DE1220E49
:101F500000018A6F8B6B010EDB6A020EDB6A030ED7
:101F6000DB6A040EDB6AA4D1D950FA0FE96EFF0ECA
:101F7000F1D92EEC19F0E552E552E552E55228C0B0
:101F800000F029C001F02AC002F02BC003F0050EBA
:101F9000DBCF04F0060EDBCF05F0070EDBCF06F03B
:101FA000080EDBCF07F004C02EF005C02FF006C0EE
:101FB00030F007C031F028C029F025DA18EC0EF017
:101FC000010A07E1FED93F0EF36E040EF3CFDBFFEB
:101FD0006FD1A2D93B0E2E6EAA0E2F6EB80E306EA8
:101FE0003F0E316E85D9C1D987D9316A81D918ECB4
:101FF0000EF0010A04E10EDA2CEC0CF003D00ADA40
:102000002DEC0CF0A9EC0DF01C0E2AC0DBFF1D0E10
:102010002BC0DBFF1C0EDBCF2AF01D0EDBCF2BF01D
:1020200019EC0CF0D8D92E6A2F6A800E306EBF0ED4
:10203000316E9BD9FA0EDBCF04F0FB0EDBCF05F03F
:10204000FC0EDBCF06F0FD0EDBCF07F01E0EDBCF64
:102050000CF01F0EDBCF0DF0200EDBCF0EF0210EAB
:10206000DBCF0FF02E6A800E2F6E310E306E3F0EDA
:10207000316E0CC029F00DC02AF00EC02BF00FC03D
:102080002CF016EC0DF029C008F02AC009F02BC086
:102090000AF02CC00BF055D9A7D92DEC0CF09BD928
:1020A0001E0EDBCF14F01F0EDBCF15F0200EDBCFA2
:1020B00016F0210EDBCF17F0830E2E6E800E2F6EE2
:1020C0005E0E306EB90E316E14C029F015C02AF0C4
:1020D00016C02BF017C02CF016EC0DF029C010F034
:1020E0002AC011F02BC012F02CC013F098D9180E92
:1020F00029C0DBFF190E2AC0DBFF1A0E2BC0DBFF45
:102100001B0E2CC0DBFF180EDBCF29F0190EDBCF26
:102110002AF01A0EDBCF2BF01B0EDBCF2CF034D9BC
:10212000220E29C0DBFF230E2AC0DBFF240E2BC0AA
:10213000DBFF250E37D9080E2E6E530E2F6E880E3C
:10214000306E3B0EF6D8800E306E3E0E316E2DECAA
:102150000CF01AD9100E29C0DBFF110E2AC0DBFFCC
:10216000120E2BC0DBFF130E1DD95B0E2E6EBF0EA1
:102170002F6E4C0E306E3D0EDCD8306A3F0E316E45
:102180002DEC0CF0140E29C0DBFF150E2AC0DBFF6E
:10219000160E2BC0DBFF170E2CC0DBFF006A016A96
:1021A000026A3F0E036E100EDBCF08F0110EDBCF7C
:1021B00009F0120EDBCF0AF0130EDBCF0BF0140E7A
:1021C000DBCF10F0150EDBCF11F0160EDBCF12F0C7
:1021D000170EDBCF13F0100EDBCF14F0110EDBCF98
:1021E00015F0120EDBCF16F0130EDBCF17F014C074
:1021F0002EF015C02FF016C030F017C031F010C00F
:1022000029F011C02AF012C02BF013C02CF02CECD6
:102210000CF029C00CF02AC00DF02BC00EF02CC021
:102220000FF08FD808C029F009C02AF00AC02BF09F
:102230000BC02CF0C3EC0CF029C004F02AC005F050
:102240002BC006F02CC007F0EAD8010E29C0DBFF36
:10225000020E2AC0DBFF030E2BC0DBFF040E2CC0D6
:10226000DBFF010EE76E1C0EDBCF00F01D0EDBCF97
:1022700001F0E7500026000E012200C0E6FF01C079
:10228000E6FFBBD896EC16F0026E060EE15C02E2A9
:10229000E16AE552E16E0250010E28C0DBFF020E3A
:1022A00029C0DBFF030E2AC0DBFF040E2BC0DBFFBF
:1022B000010EDBCF00F0020EDBCF01F0030EDBCF0F
:1022C00002F0040EDBCF03F000C028F001C029F0BB
:1022D00002C02AF003C02BF0260EE15C02E2E16AA4
:1022E000E552E16EE552E5CFDAFFE7CFD9FF120004
:1022F00000C029F003EF12F01E0EDBCF00F01F0E1E
:10230000DBCF01F0200EDBCF02F0210EDBCF03F09C
:102310002E6A2F6A306A1200FA0EDBCF00F0FB0E35
:10232000DBCF01F0FC0EDBCF02F0FD0EDBCF03F0C4
:102330001200316E59D816EC0DF04DD82E6A2F6A66
:10234000120029C02EF02AC02FF02BC030F02CC074
:1023500031F01200DA20EA6EEECFE6FFEECFE6FFB4
:10236000EECFE6FFEFCFE6FF120016EC0DF01E0EEB
:1023700029C0DBFF1F0E2AC0DBFF200E2BC0DBFFB6
:10238000210E2CC0DBFF1200180EDBCF2EF0190E31
:10239000DBCF2FF01A0EDBCF30F01B0EDBCF31F08E
:1023A00016EF0DF02CC0DBFF220EDBCF04F0230E66
:1023B000DBCF05F0240EDBCF06F0250EDBCF07F0D8
:1023C0001200010EDB6A020EDB6A800EF36E030E52
:1023D000F3CFDBFF120029C000F02AC001F02BC0B0
:1023E00002F02CC003F0120004C029F005C02AF04E
:1023F00006C02BF007C02CF01200D950010FE96E77
:10240000000EAAEF11F001C02AF002C02BF003C0A9
:102410002CF0120071DF3F0E316E78EF11F091DF7A
:0624200067DF2DEF0CF058
:0A242600D9CFE6FFDACFE6FFE1CFE1
:10243000D9FFE2CFDAFF260EE12402E3E168E6529B
:10244000E16ED950050FE1D9C4EC17F0006E060E0D
:10245000E15C02E2E16AE552E16E0050DF6E800E5F
:10246000DF5C05E00B0EDB5012E0DF0410E0210E14
:1024700000018A6F8B6B010EDB68020EDB68030EB6
:10248000DB687F0EF36E040EF3CFDBFF8FD1040EFB
:10249000DF5C0EE13EDA010EEECFDBFF020EEECF87
:1024A000DBFF030EEECFDBFF040EEECFDBFF7ED1B2
:1024B000DF0410E1210E00018A6F8B6B010EDB6AD5
:1024C000020EDB6A800EF36E030EF3CFDBFF040E09
:1024D000DB686CD1D9500C0F98D932EC17F0006E34
:1024E000060EE15C02E2E16AE552E16E0050FA0E8E
:1024F00028C0DBFFFB0E29C0DBFFFC0E2AC0DBFF80
:10250000FD0E2BC0DBFFA6D9F30E2E6E040E2F6E30
:10251000350E306E3F0E87D90FEC0EF0010A09E13F
:10252000B3D984D92CEC0CF067D9EDD984D9ACD9C6
:1025300016D00C0EDB060D0E01E2DB068BD92E6ADF
:102540002F6A306A3F0E6FD976D9160EDBCF04F0B2
:10255000170EDBCF05F0180EDBCF06F0190E66D98B
:1025600016EC0DF049D9CFD92DEC0CF01A0E29C07C
:10257000DBFF1B0E2AC0DBFF1C0E2BC0DBFF1D0E7A
:102580002CC0DBFF160EDBCF29F0170EDBCF2AF0B5
:10259000180EDBCF2BF0190EDBCF2CF01A0EDBCF91
:1025A0002EF01B0EDBCF2FF01C0EDBCF30F01D0EFC
:1025B000DBCF31F0C3EC0CF01FD9120E29C0DBFFCA
:1025C000130E2AC0DBFF140E2BC0DBFF150E2CC030
:1025D000DBFF4DD9120EDBCF2EF0130EDBCF2FF029
:1025E000140EDBCF30F0150E62D90E0E29C0DBFFC2
:1025F0000F0E2AC0DBFF100E2BC0DBFF110E2CC00C
:10260000DBFF3D0EF36E1E0EF3CFDBFF7E0EF36E8F
:102610001F0EF3CFDBFF0D0EF36E200EF3CFDBFFAB
:10262000BF0EF36E210EF3CFDBFF0E0EDBCF00F0FB
:102630000F0EDBCF01F0100EDBCF02F0110EDBCF5F
:1026400003F03A0E2E6E3F0E2F6ED40E306EC00E7B
:10265000EAD82DEC0CF0220E29C0DBFF230E2AC095
:10266000DBFF240E2BC0DBFF250E2CC0DBFF0E0E84
:10267000DBCF29F00F0EDBCF2AF0100EDBCF2BF0D3
:10268000110EDBCF2CF01E0EDBCF2EF01F0EDBCF9A
:102690002FF0200EDBCF30F0210E09D9220EDBCF38
:1026A0002EF0230EDBCF2FF0240EDBCF30F0250EE3
:1026B000DBCF31F0C3EC0CF007D9120EDBCF00F00A
:1026C000130EDBCF01F0140EDBCF02F0150EDBCFC3
:1026D00003F0CDD8010EDBCF2EF0020EDBCF2FF0B2
:1026E000030EDBCF30F0040EE2D829C004F02AC07C
:1026F00005F02BC006F02CC007F078D8046A800ED5
:10270000056E310E066E3F0E076EC9D829C008F05F
:102710002AC009F02BC00AF02CC00BF0CCD8E1D8AD
:1027200016EC0DF069D8830E146E800E156E5E0ED9
:10273000166EB90E176EB3D829C018F02AC019F05A
:102740002BC01AF02CC01BF0B6D814C029F015C04D
:102750002AF016C02BF017C02CF016EC0DF029C093
:1027600010F02AC011F02BC012F02CC013F0010E93
:10277000DBCF1CF0020EDBCF1DF0030EDBCF1EF013
:10278000040EDBCF1FF01CC02EF01DC02FF01EC0AA
:1027900030F01FC031F02DEC0CF029C00CF02AC035
:1027A0000DF02BC00EF02CC00FF020D8010EDBCFA7
:1027B00000F0020EDBCF01F0030EDBCF02F0040EBF
:1027C000DBCF03F000C028F001C029F002C02AF0DE
:1027D00003C02BF0260EE15C02E2E16AE552E16EF5
:1027E000E552E5CFDAFFE7CFD9FF120064D882D8EF
:1027F0002DEC0CF064EF14F029C000F02AC001F0B9
:102800002BC002F02CC003F01200E66E000EDA209E
:10281000E66E7FD8EECFE6FFEECFE6FFEECFE6FF27
:10282000EFCFE6FF1200316E7AEF14F0DBCF07F046
:102830006AD871EF14F02CEC0CF0160E29C0DBFFF7
:10284000170E2AC0DBFF180E2BC0DBFF190E2CC0A1
:10285000DBFF1200FA0EDBCF00F0FB0EDBCF01F046
:10286000FC0EDBCF02F0FD0EDBCF03F01200120EE8
:10287000DBCF29F0130EDBCF2AF0140EDBCF2BF0C9
:10288000150EDBCF2CF01200FA0EDBCF04F0FB0E9E
:10289000DBCF05F0FC0EDBCF06F0FD0E12000C0EB8
:1028A000DBCF2AF00D0EDBCF2BF019EF0CF0DBCFD6
:1028B00031F016EF0DF029C02EF02AC02FF02BC0FA
:1028C00030F02CC031F01200010E29C0DBFF020EE7
:1028D0002AC0DBFF030E2BC0DBFF040E2CC0DBFF86
:1028E000120004C029F005C02AF006C02BF007C072
:1028F0002CF0120000C029F001C02AF002C02BF019
:1029000003C02CF012002E6A2F6A306A3F0E316E1F
:102910001200D950FA0FE96EFF0EDA20EA6E1200AB
:10292000D9CFE6FFDACFE6FFE1CFD9FFE2CFDAFF7A
:10293000130EE12402E3E168E652E16E0C0EDB6A5D
:10294000D950FA0FE96EFF0EDA20EA6E080EEECFCC
:10295000DBFF090EEECFDBFF0A0EEECFDBFF0B0E27
:10296000EECFDBFF1FD9D950080F17D9EECFE6FF06
:10297000EECFE6FFEECFE6FFEFCFE6FFC4EC17F0B9
:10298000006E060EE15C02E2E16AE552E16E005083
:10299000DF6E020EDF5C01E0BCD0050EDBCF02F083
:1029A000060EDBCF03F0F80EDB50025C006EF90E72
:1029B000DB500358016E7F0E005E000E015A0D0EB3
:1029C00000C0DBFF0E0E01C0DBFF0D0E0E0EDBCFD5
:1029D00001F00001800E01140AE0010EF36E0C0EEE
:1029E000F3CFDBFF070EDB5001E098D09DD00D0E3A
:1029F000DBCF00F00E0EDBCF01F0D890015004E6E3
:102A0000170E005C000E015801E39ED004680568B3
:102A10007F0E066E076A0D0EDB501F0B04C000F020
:102A200005C001F006C002F007C003F007E0D8902F
:102A30000332023201320032E806F9E10F0E00C023
:102A4000DBFF100E01C0DBFF110E02C0DBFF120E18
:102A500003C0DBFF0F0EDBCF00F0100EDBCF01F069
:102A6000110EDBCF02F0120EDBCF03F0D950010FB5
:102A700094D8EE500016EE500116EE500216EE50AD
:102A80000316005001100210031002E1000E01D0E5
:102A9000010EE76E0C0EE7CFDBFFDB5055E0046A5A
:102AA000056A800E066E076A010E086E096A0A6AD8
:102AB0000B6AD9500F0F71D8EE500826EE5009223C
:102AC000EE500A22EE500B220850045C006E0950B2
:102AD0000558016E0A500658026E0B500758036ED7
:102AE000D950010F5AD80050EE160150EE16025080
:102AF000EE160350EE16D950080FE66E000EDA20DF
:102B0000E66E50D852EC18F0E552E552E552E55227
:102B10001BD0DF0419E1070EDB5006E0006A016AF2
:102B2000026A800E036E04D0006A016A026A036AB8
:102B3000080E00C0DBFF090E01C0DBFF0A0E02C059
:102B4000DBFF0B0E03C0DBFFF60EDBCFE9FFF70E5A
:102B5000DBCFEAFF0C0EDBCFEFFF080EDBCF00F080
:102B6000090EDBCF01F00A0EDBCF02F00B0EDBCF3C
:102B700003F000C028F001C029F002C02AF003C011
:102B80002BF0130EE15C02E2E16AE552E16EE552E0
:102B9000E5CFDAFFE7CFD9FF1200E96E000EDA20A9
:102BA000EA6E1200D950010FE66E000EDA20E66ED2
:022BB000120011
:0E2BB200D9CFE6FFDACFE6FFF80EE3CFD9FF6A
:102BC000F90EE3CFDAFFE652E652E652E652E6525B
:102BD000FB0EE124E76EFF0EE220E46EE652F30EF8
:102BE000E3CFE6FFF30EE3CFE6FFF30EE3CFE6FF1E
:102BF000F30EE3CFE6FF5EEC16F0F50EE124E96E8E
:102C0000FF0EE220EA6E4BEC16F019E14EEC16F0E6
:102C100018E14BEC16F017E14EEC16F016E14BEC18
:102C200016F015E14EEC16F014E14BEC16F013E142
:102C30004EEC16F012E14BEC16F011E112D054EC10
:102C400016F059EC16F054EC16F059EC16F054EC62
:102C500016F059EC16F054EC16F059EC16F054EC52
:102C600016F059EC16F0DE6AF50EE126FF0EE222B0
:102C7000FF0EE3CFDAFFE552FF0EE3CFD9FFE552B7
:102C8000FA0EE124E96EFF0EE220EA6EEECFF3FFCA
:102C9000EFCFF4FF1200EF380F0B1200EF500F0BC5
:102CA00002E1EE52D8841200EF380F0B300FDE6EC7
:102CB0001200EE500F0B300FDE6E1200FA0EE3CF53
:102CC000E9FFFB0EE3CFEAFF200EE66EEE6AEE6A46
:102CD000EE6AEE6AEF6AD890FB0EE336FC0EE3363E
:102CE000FD0EE336FE0EE336ED36ED36ED36ED360F
:102CF000EF36FF0EE3060FE08DEC16F0EE528DEC92
:102D000016F0EE528DEC16F0EE528DEC16F0EE52FF
:102D10008DEC16F0E1D7E56E1200030EEF24E8B655
:0C2D2000EF6E300EEF24E8BEEF6E000CEA
:042D2C0096D8E1CF85
:102D3000D9FFE2CFDAFF0C0EE12402E3E168E652AC
:102D4000E16ED950FA0FE96EFF0EDA20EA6E080E36
:102D5000EECFDBFF090EEECFDBFF0A0EEECFDBFF7F
:102D60000B0EEECFDBFF79D8D950080FE96E000EBD
:102D7000DA20EA6EEECFE6FFEECFE6FFEECFE6FF1B
:102D8000EFCFE6FFC4EC17F0006E060EE15C02E246
:102D9000E16AE552E16E0050E76E070EE7CFDBFF18
:102DA000DB50840B3AE1070EDB041AE1060EDB5020
:102DB00006E0006A016A026A800E036E04D0006AAF
:102DC000016A026A036A080E00C0DBFF090E01C037
:102DD000DBFF0A0E02C0DBFF0B0E03C0DBFF1DD0C2
:102DE000F80EDBCF00F0F90EDBCF01F0D950040F65
:102DF000E96E000EDA20EA6E0050EE260150ED2258
:102E0000D950080FE66E000EDA20E66E26D852EC96
:102E100018F0E552E552E552E552080EDBCF00F01E
:102E2000090EDBCF01F00A0EDBCF02F00B0EDBCF79
:102E300003F000C028F001C029F002C02AF003C04E
:102E40002BF00C0EE15C02E2E16AE552E16EE55224
:102E5000E5CFDAFFE7CFD9FF1200D9CFE6FFDACF0F
:042E6000E6FF120077
:0C2E6400D9CFE6FFDACFE6FFE1CFD9FFBF
:102E7000E2CFDAFF0C0EE12402E3E168E652E16EF4
:102E8000D950FA0FE96EFF0EDA20EA6E010EEECF8E
:102E9000DBFF020EEECFDBFF030EEECFDBFF040EF7
:102EA000EECFDBFF63D8D950010FE96E000EDA20B8
:102EB000EA6EEECFE6FFEECFE6FFEECFE6FFEFCF16
:102EC000E6FFC4EC17F0006E060EE15C02E2E16A78
:102ED000E552E16E0050DF6E850EDF1404E04DD840
:102EE000EE6AED6A23D0090EDBCF00F00A0EDBCFCD
:102EF00001F0820E0026FF0E01223FD800C0EEFF37
:102F000001C0EDFF7E0EF36E090EF3CFDBFF0A0E5C
:102F1000DB6AD950010FE66E000EDA20E66E26D885
:102F200052EC18F0E552E552E552E552010EDBCFC6
:102F300000F0020EDBCF01F0030EDBCF02F0040E37
:102F4000DBCF03F000C028F001C029F002C02AF056
:102F500003C02BF00C0EE15C02E2E16AE552E16E87
:102F6000E552E5CFDAFFE7CFD9FF1200D950050FC0
:102F7000E66E000EDA20E66E1200F80EDBCFE9FFF7
:082F8000F90EDBCFEAFF12009D
:082F8800D9CFE6FFDACFE6FF26
:102F9000E1CFD9FFE2CFDAFFE652006801687F0E89
:102FA000026E036AD950FA0FE96EFF0EDA20EA6E5C
:102FB000EE500016EE500116EE500216EE500316BB
:102FC0006AD800C0EEFF01C0EEFF02C0EEFF03C0F2
:102FD000EEFFFD0EDB50800B02E0010E01D0000E73
:102FE000E66E59D8060EE926000EEA22E552E750B1
:102FF000EF6EFC0EDBCF00F0FD0EDBCF01F0D890C2
:1030000000360136FC0E00C0DBFFFD0E01C0DBFF09
:10301000DB50E66E40D8040EE926000EEA22E552A7
:10302000E750EE6EED6AFD0EDB50006E016AFF0E9A
:10303000001818E1015016E12ED8EECF00F0EECFC7
:1030400001F0EECF02F0EFCF03F0005001100210BC
:10305000031006E0210E00018A6F8B6B800E0BD0EF
:10306000040E09D0FD0EDB5008E115D8EE6AEE6AB9
:10307000EE6AEE6A010EDF6E06D0020EDF6E0BD82E
:10308000EE52EE52EE8EDF50E552E552E5CFDAFF1A
:10309000E7CFD9FF1200F80EDBCFE9FFF90EDBCF47
:0430A000EAFF120031
:0C30A400D9CFE6FFDACFE6FFE1CFD9FF7D
:1030B000E2CFDAFF5BD8013411E20050FE08000EC7
:1030C00001540CE276D805E06CD8800EEE6EEE6806
:1030D00047D067D8800EEE6E7F0E0ED047D8D890BE
:1030E000015004E6010E005C000E01580BE261D8AD
:1030F00005E057D8EE6A800EEE6E32D052D8EE6AF6
:10310000EE6A2ED047D8EECF00F0EECF01F0EECF32
:1031100002F0EFCF03F032D800C0EEFF01C0EEFFA7
:1031200002C0EEFF03C0EEFF21D80050010B05E006
:1031300025D8020E3AD8EF8E04D020D8020E35D80A
:10314000EF9E14D8D8900132003218D8030E2DD833
:1031500000C0EFFF1AD804E011D8030E26D8EF8E76
:10316000E552E5CFDAFFE7CFD9FF120013D8040EFE
:103170001CD8EECF00F0EFCF01F01200FA0EDBCF3B
:10318000E9FFFB0EDBCFEAFF120004D8060E0DD8D4
:10319000EF501200FC0EDBCFE9FFFD0EDBCFEAFFA4
:1031A0001200ECDFEE6AEE6A1200E926000EEA2257
:0E31B0001200220E00018A6F8B6BC5EF18F023
:0231BE00060EFB
:1031C000F66E000EF76E000EF86E00010900F55065
:1031D000856F0900F550866F03E1856701D03DD00A
:1031E0000900F550806F0900F550816F0900F55016
:1031F000826F09000900F550E96E0900F550EA6E8A
:10320000090009000900F550836F0900F550846F2B
:1032100009000900F6CF87F0F7CF88F0F8CF89F0E2
:1032200080C0F6FF81C0F7FF82C0F8FF0001835322
:1032300002E1845307E00900F550EE6E8307F8E2DF
:103240008407F9D787C0F6FF88C0F7FF89C0F8FF69
:0C32500000018507000E865BBFD712004E
:04325C00D9CFE6FFE1
:10326000DACFE6FFE1CFD9FFE2CFDAFFE652E6524E
:10327000D950FD0F006EFF0EDA2000C0DEFFDD6EBC
:10328000DECFE9FFDDCFEAFFEF9EFA0EDBCF00F0E5
:10329000FB0EDBCF01F0FC0EDBCF02F0FD0EDBCF2F
:1032A00003F000C028F001C029F002C02AF003C0DA
:1032B0002BF0E552E552E552E5CFDAFFE7CFD9FF33
:0232C0001200FA
:0E32C200D9CFE6FFDACFE6FFE1CFD9FFE2CFAA
:1032D000DAFFE652E652D650DF6E010ED7CFDBFFA3
:1032E000DECF00F0DDCF01F000C0F3FF01C0F4FF3E
:1032F000E552E552E552E5CFDAFFE7CFD9FF1200FC
:10330000D9CFE6FFDACFE6FFE1CFD9FFE2CFDAFF90
:10331000E652E652FC0EDBCFDEFFDBCFDDFF010E17
:10332000DB50D76EDF50D66EE552E552E552E5CF61
:08333000DAFFE7CFD9FF12001C
:08333800D9CFE6FFDACFE6FF72
:10334000E1CFD9FFE2CFDAFFFD0EDB507F0BD56E68
:10335000D76AD66AF294FD0EDBAE02D0F28A01D0B3
:10336000F29AD58EE552E5CFDAFFE7CFD9FF12000A
:10337000FF0EE350376EEF0E01D0F30EE76EE72E2F
:10338000BFEF19F00C0E366EE76AE72EC5EF19F0A5
:0E339000362EC4EF19F0372EBDEF19F01200E3
:02339E00276A9C
:1033A000266A100EE76ED8902A362B362636273638
:1033B0002F50265C3050275805E32F50265E3050A2
:0A33C000275A2A2AE72EF0D7120040
:0633CA00FF0EE350376E18
:1033D000480E01D04C0EE76EE72EFED7E76AE72EC7
:0A33E000FED7372EF7D700001200C9
:0633EA00000EF36E00EE80
:1033F00000F0060E01D81200EA6002D0EE6AFCD797
:0A340000F350E9601200EE6AFCD7F9
:06340A00496E76616C6959
:10341000646F210025004361702825293A20006D42
:083420004C00566F6C3A2000CD
:0834280015EE00F025EE00F0A6
:10343000F86A239CDFEC18F031EC1AF042EC03F050
:04344000FBD71200A4
:0C344400FF0EE350E84E1200000000D024
:0A34500000D000D0E82EFAD71200D9
:06345A003838380C0601B1
:01346000006B
:02346200120056
:020000040030CA
:010003001EDE
:0100050003F7
:00000001FF
